:020000040800F2
:1000000000BFFEE770472DE9F041024600250026BB
:10001000002000230024002791F803C00CF00F05F6
:1000200091F803C00CF0100CBCF1000F03D091F854
:1000300002C04CEA050591F800C0BCF1000F31D0B8
:10004000146800202BE04FF0010C0CFA00F3B1F81B
:1000500000C00CEA03069E4220D183004FF00F0C33
:100060000CFA03F7BC4305FA03FC4CEA040491F8CC
:1000700003C0BCF1280F06D14FF0010C0CFA00FCB4
:10008000C2F814C00AE091F803C0BCF1480F05D1D2
:100090004FF0010C0CFA00FCC2F810C0401C0828FC
:1000A000D1D31460B1F800C0BCF1FF0F34DD546847
:1000B00000202EE000F1080C4FF0010808FA0CF3C4
:1000C000B1F800C00CEA03069E4221D183004FF034
:1000D0000F0C0CFA03F7BC4305FA03FC4CEA0404CA
:1000E00091F803C0BCF1280F05D100F1080C08FA03
:1000F0000CF8C2F8148091F803C0BCF1480F07D186
:1001000000F1080C4FF0010808FA0CF8C2F8108052
:10011000401C0828CED35460BDE8F08101617047CF
:1001200000BFFEE708B50121502000F02FF84FF482
:100130000050ADF8000010208DF8030003208DF86A
:10014000020069464FF48050C4F20100FFF75BFFE4
:100150004FF400514FF48050C4F20100FFF7DEFF6E
:100160002020ADF8000069464FF4C050C4F20100F1
:10017000FFF749FF20214FF4C050C4F20100FFF700
:10018000CDFF08BD00BFFEE77047704759B14FF47F
:100190008052C4F20202926902434FF48053C4F2C7
:1001A00002039A610AE04FF48052C4F2020292699B
:1001B00082434FF48053C4F202039A617047704740
:1001C00010B500F001F810BD0CB5002001900090B2
:1001D0004FF48050C4F20200006840F480304FF4C5
:1001E0008051C4F20201086000BF4FF48050C4F295
:1001F0000200006800F4003000900198401C01905B
:10020000009818B90198B0F5A06FEED14FF4805066
:10021000C4F20200006800F4003010B10120009028
:1002200001E000200090009801285BD14FF40050BD
:10023000C4F20200006840F010004FF40051C4F214
:10024000020108600846006820F0030008600846C4
:10025000006840F0020008604FF48050C4F20200D1
:1002600040684FF48051C4F202014860084640687B
:1002700048600846406840F480604860084640682E
:1002800020F47C1048600846406840F4E81048605C
:100290000846006840F08070086000BF4FF480504E
:1002A000C4F20200006800F000700028F6D04FF49D
:1002B0008050C4F20200406820F003004FF48051E7
:1002C000C4F2020148600846406840F002004860FD
:1002D00000BF4FF48050C4F20200406800F00C00F0
:1002E0000828F6D10CBD042808D14FF0E021096997
:1002F00041F004014FF0E022116107E04FF0E021EE
:10030000096921F004014FF0E02211617047704744
:1003100010B54FF48050C4F20200006840F00100B4
:100320004FF48051C4F20201086008464068002181
:10033000CFF6FF0108404FF48051C4F2020148603B
:100340000846006820F4102020F0807008600846FD
:10035000006820F4802008600846406820F4FE0011
:1003600048604FF41F008860FFF72AFF4FF00060DD
:100370004EF60851CEF20001086010BD10B540F2F3
:1003800025514FF46050C4F2010000F05BF858B3FF
:100390004FF46050C4F2010000F07EF8C4B240F2A5
:1003A0001C00C2F20000008800F40040E0B940F2F6
:1003B0001C00C2F20000008800F48040A8B10A2CA2
:1003C00006D0002040F21C01C2F20001088038E093
:1003D00040F21C00C2F20000008840F4004040F2ED
:1003E0001C01C2F2000108802BE00D2C0CD140F260
:1003F0001C00C2F20000008840F4804040F21C0162
:10040000C2F2000108801CE040F21C00C2F20000B1
:100410000088C0F30D0040F22001C2F200010C542C
:1004200040F21C00C2F200000088401C40F21C0197
:10043000C2F20001088008460088C72801DD0020BC
:10044000088010BD70B5024600240023002500205E
:1004500040F66A16B14200D100BFC1F3421501F067
:100460001F03012606FA03F3012D02D196893340BA
:1004700006E0022D02D1168A334001E0968A33400D
:100480000C12012606FA04F41688344013B10CB19C
:10049000012000E0002070BD01468888C0F30800FC
:1004A000704700BFFEE7014600BF704710B56FF010
:1004B0000400FFF718FF40F20000C2F200000068DD
:1004C0004FF49051C0F27A01B0FBF1F040F2140108
:1004D000C2F2000108700846007800EB4001C1EB51
:1004E000C0104FF6FF7101EAC00040F21601C2F2DF
:1004F0000001088010BD014640F21602C2F200025F
:1005000012884A434FF0E0235A6100229A611A464A
:10051000126942F001021A6100BF4FF0E022106937
:1005200000F001021AB100F48032002AF5D04FF039
:10053000E022126922F001024FF0E0231A6100224A
:100540009A617047FFF7B2FFFFF7ECFD1FE0002054
:100550004FF4DA71C4F22221086001200021C4F2B4
:100560002321C1F894014FF49670FFF7C4FF0120D6
:100570004FF4DA71C4F22221086000200021C4F295
:100580002321C1F894014FF49670FFF7B4FFDEE722
:10059000480700205D0700088901000821010008C4
:1005A0008501000801000008A30400080000000005
:1005B000000000000000000000000000BF01000873
:1005C00005000008000000008B0100080F03000870
:1005D0007707000877070008770700087707000803
:1005E00077070008770700087707000877070008F3
:1005F00077070008770700087707000877070008E3
:1006000077070008770700087707000877070008D2
:1006100077070008770700087707000877070008C2
:1006200077070008770700087707000877070008B2
:1006300077070008770700087707000877070008A2
:100640007707000877070008770700087707000892
:100650007707000877070008770700087707000882
:10066000770700087D030008770700087707000870
:100670007707000877070008770700087707000862
:100680007707000877070008770700087707000852
:100690007707000877070008770700087707000842
:1006A0007707000877070008770700087707000832
:1006B0007707000877070008770700087707000822
:1006C00000F002F800F03AF80AA090E8000C82442A
:1006D0008344AAF10107DA4501D100F02FF8AFF207
:1006E000090EBAE80F0013F0010F18BFFB1A43F010
:1006F000010318471801000038010000103A24BF18
:1007000078C878C1FAD8520724BF30C830C144BF76
:1007100004680C60704700000023002400250026B8
:10072000103A28BF78C1FBD8520728BF30C148BF54
:100730000B6070471FB51FBD10B510BD00F033F83A
:100740001146FFF7F7FFFFF7FDFE00F051F803B485
:10075000FFF7F2FF03BCFFF7A6FE00000948804741
:1007600009480047FEE7FEE7FEE7FEE7FEE7FEE793
:10077000FEE7FEE7FEE7FEE704480549054A064BAB
:100780007047000011030008C1060008480100205E
:1007900048070020480300204803002070477047A6
:1007A000704770477047754600F02CF8AE4605005C
:1007B0006946534620F00700854618B020B5FFF77C
:1007C000DBFFBDE820404FF000064FF000074FF080
:1007D00000084FF0000B21F00701AC46ACE8C0095F
:1007E000ACE8C009ACE8C009ACE8C0098D46704768
:1007F00010B50446AFF300802046BDE81040FFF777
:10080000A6BF000000487047E80000202C08000840
:100810000000002020000000FC0600084C08000832
:1008200020000020280700001807000800A24A0442
:100830000000000000000000010203040607080990
:0C084000000000000000000000000000AC
:040000050800075D8B
:00000001FF
